:1000000000800010D1120000011300000313000053
:100010000513000007130000091300000000000092
:100020000000000000000000000000000B130000B2
:100030000D130000000000000F130000111300005A
:100040001313000013130000131300001313000018
:100050001313000013130000131300001313000008
:1000600013130000131300001313000013130000F8
:1000700013130000131300001313000013130000E8
:1000800013130000131300001313000013130000D8
:1000900013130000131300001313000013130000C8
:1000A00013130000131300001313000013130000B8
:1000B00013130000131300001313000013130000A8
:1000C00013130000131300001313000008B50548B4
:1000D000054B1B1A062B00D808BD044B002BFBD088
:1000E0009847F9E7400100104301001000000000AC
:1000F00008B50748074B1B1A9B1003EBD373591025
:1001000000D108BD044A002AFBD09047F9E700BFA0
:1001100040010010400100100000000010B5064C26
:10012000237843B9FFF7D2FF044B13B10448AFF370
:1001300000800123237010BD40010010000000006A
:100140001827000008B5074B1BB107480749AFF354
:1001500000800748036813B1064B03B19847BDE818
:100160000840C5E700000000182700004401001007
:1001700040010010000000003649F0B44B680D69E2
:100180002B604A694B6812681A421BD0324AD36806
:1001900054681C605469536824681C421CD02F4B5F
:1001A000DC685E6826605E695C68366826420ED050
:1001B0002B4CE66867683760032826D8DFE800F034
:1001C00011201B16244A136954681C60E2E7244C72
:1001D000266967683760EFE7204B1C695E68266018
:1001E000E1E7E3686268F0BC1A607047CB684A6870
:1001F000F0BC1A607047D3685268F0BC1A60704750
:10020000DA685B68F0BC136070474868286048692A
:1002100049680068084214D1116950680860516942
:1002200052680968114210D0DA68596811605A6939
:100230005B6812681A42D4D123696268F0BC1A6004
:100240007047D16850680860E9E71A695968116019
:10025000EDE700BFEC010010D4010010BC0100105C
:10026000A40100101A4A1B4BD168506870B5DA68B7
:1002700008605B68184D194C13604FF4FA76EB6810
:100280006A68E1681A60636815480B6000F00AF953
:100290002B696A6821691A60636812480B6000F074
:1002A00001F9013EEBD13046FFF766FF012500E082
:1002B00025460D4800F0F6F86C1C2846FFF75CFF59
:1002C000032CF5DD084800F0EDF80024F0E700BF4E
:1002D000740100108C0100105C0100100402001079
:1002E00017B7D1386F12033ACDCC4C3E2D4B10B519
:1002F000184600242C491C605C609C60DC601C611A
:100300005C6100F047F9294B294918461C605C6084
:100310009C60DC601C615C6100F03CF9254B264967
:1003200018461C605C609C60DC601C615C6100F0D5
:1003300031F9224B224918461C605C609C60DC60ED
:100340001C615C6100F026F91E4B1F4918461C60B9
:100350005C609C60DC601C615C6100F01BF91B4B05
:100360001B4918461C605C609C60DC601C615C6121
:1003700000F010F9174B184918461C605C609C602F
:10038000DC601C615C6100F005F9144B14491C60D1
:100390005C609C60DC601C615C611846BDE81040DC
:1003A00000F0F8B8A401001016C00920BC0100102C
:1003B00032C00920D401001033C00920EC01001024
:1003C00034C009207401001047C009205C010010EE
:1003D00048C009208C0100104BC009200402001005
:1003E0004CC009200748084A08B5121A002101F03C
:1003F0007DFBAFF3008001F0F9FA00F033FF01F06C
:1004000005F900BF4001001024040010022801DC9F
:100410000120704700F0EEBE036870B5DB6805464A
:1004200098476B685B6883B12A681C685368984773
:10043000201A00286A680DDC5068116883685360D0
:100440000029F0D040688847EBE72B68BDE8704092
:100450009B6818472B6852681B691068BDE870409C
:10046000184700BF30B585B018246D462046294690
:10047000ABBE0446204605B030BD00BF024B186835
:1004800000F00100704700BFF0ED00E038B5054610
:1004900000F0F4F9044600F0F1F9001BA842FAD389
:1004A00038BD00BF08B5044900F034FF01F082F800
:1004B000BDE80840FFF7EABF002474494FF47A739F
:1004C00003FB00F0FFF7E2BF0FB400B5064A83B0AC
:1004D00004AB53F8041B10681A46C068019301F07E
:1004E000D3FC012001F092F83001001000B599B062
:1004F00072B61749684600F04DF806A8154900F095
:1005000049F80CA8144900F045F812A8134900F066
:1005100041F8039A01990A9B11600799109A196092
:100520000D99159B1160139A96201A60FFF7C6FF6C
:10053000049A0199099B116007990F9A19600D9906
:10054000169B1160139A96201A60FFF7B7FFE0E739
:1005500032C0092034C0092035C0092037C0092025
:100560000148FFF759BF00BFEC240000FFF786BF2A
:1005700038B50D46044600F013F9013509D0204680
:10058000002100F02FF92046BDE83840032100F09B
:1005900025B938BD38B50D46044600F001F90135DE
:1005A0000CD02369626820461A60012100F01AF914
:1005B0002046BDE83840022100F010B938BD00BF28
:1005C00070B50D461646044600F0EAF8013511D024
:1005D00066B9236962681A602046012100F002F9B9
:1005E0002046BDE87040022100F0F8B8E368626878
:1005F0001A60F1E770BD00BF431C10B5044618D067
:100600000B68581C04D10FE051F80C3F5A1C0BD05A
:100610009C42F9D12046896800F056F92046BDE891
:100620001040022100F06CB90248BDE81040FFF70D
:100630004BBF10BDF424000088420AD0421C09D0F0
:10064000013106D008B50448FFF73EFF4FF0FF30F8
:1006500008BD704708467047082500000B685A1C03
:1006600004D107E051F80C3F5A1C03D08342F9D162
:100670004868704718467047421C0ED008B50B6892
:100680005A1C04D10AE051F80C3F5A1C06D098427B
:10069000F9D14868411C01D008BD70470248FFF7F6
:1006A00013FF4FF0FF30F7E71C2500000C4B30B470
:1006B0009D689A682B46B2F1805F0CD2094AC43516
:1006C00053F8044BAB4242F8044FF9D14FF080523B
:1006D0001346034CA260103043F8201030BC704722
:1006E00000ED00E0FCFFFF0F2B4A2023F0B4C2F81E
:1006F000A031D2F8A031980645D4274B00251946E1
:100700000124AA20552202270B26C3F80471C3F83E
:10071000A851C3F8AC51C3F80C41C3F88460C3F8C6
:100720008C00C3F88C20C3F88040C3F88C00C3F859
:100730008C20D1F88830184A5B01FAD51146032481
:10074000AA205523C2F88040C2F88C00C2F88C3031
:10075000D1F88830104A13F0407FF9D00F490023B8
:100760000520C2F80801C2F8C410C2F8C8311368E5
:10077000F0BC23F4704323F03A0343F4405343F0B6
:100780003A0313607047D2F8A0315906B5D4D2F8B5
:10079000A0315906F7D5B0E700C00F40DE87280426
:1007A0004A1C016018D038B50C46054608460021A1
:1007B00000F08AF824F01F0104F01F020123934087
:1007C00001F1180401F11C0001F11402A9606B6031
:1007D000EC6028616A6138BD704700BF006800F0B6
:1007E0008FB800BF41B1012905D182684368116803
:1007F0000B4313607047704782684168136823EAAF
:1008000001031360704700BF38B51249124B012431
:100810001C60D1F8C430114A43F40003104800258D
:10082000C1F8C4301567036801F1437101F5F45153
:1008300003319B08A1FB03139B0C013B0221516078
:100840000420D36007495460FFF730FF064B1022A5
:100850001A6038BD00C00F4024020010004009405B
:10086000C80000106105000000E100E0024B1B68B9
:1008700003B17047FFF7C8BF2402001008B5044B4E
:100880001B680BB9FFF7C0FF024B986808BD00BF9B
:100890002402001000400940034B98615A6942F05D
:1008A00001025A61704700BF00400940024A536983
:1008B00023F001035361704700400940014B0122BE
:1008C0001A6070470040094000F16040A0F51C200C
:1008D00003099B0003F1804303F5303300F00F0060
:1008E00010B440001C680322824024EA02021A600D
:1008F0001A6881400A431A605DF8044B704700BFD4
:1009000000F16040A0F51C2043099B0003F18043E7
:1009100003F5303330B400F01F029C6EC1F3800544
:1009200005FA02F224EA02049C669C6E22439A664F
:1009300095B903099B0003F1804303F5303300F0C0
:100940000F001C6C40000322824024EA02021A6459
:100950001A6C81401143196430BC7047174B996879
:10096000C1F34201012918D0022914D1144A516F50
:10097000013106D0D2F88010906F086092F8A6106E
:1009800091B1106F0E4BB8B193F8A63023B10D4B57
:1009900000211B68184770477047094B186F0028E3
:1009A000FAD0084B1B681847596821F001015960BB
:1009B000106F034B0028E7D1704700BF008009404B
:1009C000300200102C02001070B50368284CA342BE
:1009D00047D03FDD274CA34229D004F58044A342F1
:1009E00042D1254C082632BB01290BD04268234C4A
:1009F000C2EBC20204EBC20292F8364030325279A6
:100A0000D44213D1B1FA81F45D68012202FA01F1F6
:100A100025EA01015960036864095B6802FA04F180
:100A2000194203D1164BB240C3F8802070BD154C5B
:100A30000726002AD8D05A68012505FA01F10A4391
:100A400076B25A6021463046FFF730FE0C4BB54077
:100A50001D6070BDA4F58044A34205D10A4C052653
:100A6000C1E70A4C0626BEE700242646BBE700BFC6
:100A70000000014000800940910A0000300200108F
:100A800000E100E05D090000050B00006D0B0000B7
:100A9000194B9968C1F3420101291BD0022917D1D2
:100AA000164AD2F8AC10013107D0D2F8B810D2F8FB
:100AB000B000086092F8DE10A1B1D2F8A8000F4B88
:100AC000C8B193F8DE3023B10D4B00211B681847E5
:100AD00070477047094BD3F8A8000028F9D0084B9D
:100AE0001B681847596821F001015960D2F8A80025
:100AF000024B0028E5D1704700C0094030020010C9
:100B00002C020010164B9968C1F34201012917D03D
:100B1000022913D1134A5168013105D01169906837
:100B2000086092F8361091B110680E4BB8B193F886
:100B3000363023B10C4B00211B68184770477047B3
:100B4000084B18680028FAD0074B1B6818475968EB
:100B500021F0010159601068024B0028E7D170476D
:100B600000C00040300200102C020010164B9968A3
:100B7000C1F34201012917D0022913D1134AD16BC5
:100B8000013105D0916C106C086092F86E1091B133
:100B9000906B0E4BB8B193F86E3023B10C4B002123
:100BA0001B68184770477047084B986B0028FAD0AD
:100BB000074B1B681847596821F001015960906B79
:100BC000024B0028E7D170470000014030020010BE
:100BD0002C0200102DE9F04F02686A4B89B09A424E
:100BE0000790069200F0BC8040F3A780664B069801
:100BF000984200F0898003F5804398420CD1634B02
:100C0000D3F8AC2122F44022C3F8AC21D3F8AC21B4
:100C100042F48022C3F8AC215D4A0B011268B2FB9A
:100C2000F3F003FB1023039280B2002B00F08380CB
:100C3000039B4FF001085A009C009446A246C3460D
:100C40008E469946002304920594009002910193E8
:100C500000242546029E5FFA88F7BCF1000FB5BF5D
:100C6000BCFBF6F0BAFBF6F0000940090130C0F316
:100C70004F0008EB0402002854D1002C7ED0022043
:100C8000034603FB02F3DB00B9FBF3F30133C1EBD3
:100C90005303002BB8BF5B42734505DA8B4246D045
:100CA0009E46BB468DE821000134E5B2BD420E44AC
:100CB000D3D3039B08F101089944049BB8F1100FAA
:100CC0009C44059B9A44029B0B440293C0D1019B18
:100CD000009843EA0B15EDB20699C0F307220B7B8F
:100CE000C0B243F080030B7307990B681A710B684D
:100CF00018700B6883F828500A68137B03F07F0391
:100D0000137309B0BDE8F08F204BD3F8AC2122F467
:100D10004032C3F8AC21D3F8AC2142F48032C3F89E
:100D2000AC2179E7002CABD00128A9D8A7E745EA88
:100D30000715EDB2D0E71025CEE7A3F580439A4220
:100D40007FF46AAF114BD3F8A82122F0C002C3F898
:100D5000A821D3F8A82142F04002C3F8A8215BE7FC
:100D60000A4BD3F8A82122F44072C3F8A821D3F883
:100D7000A82142F48072C3F8A8214DE70120034660
:100D80007FE700BF000001400080094000C00F4025
:100D9000C80000100268137DDB07FCD543680949D1
:100DA000C3EBC30301EBC303596810780131C0B230
:100DB00006D059699B680B60536843F00103536088
:100DC000704700BF300200104368174AC3EBC303EB
:100DD000DB00D11810B4CC69013411D00B460A6B7A
:100DE0001C335B6812681A4203D000205DF8044B84
:100DF000704703685DF8044B187DC0F3801070479E
:100E000003681B7D9B0608D491F834005DF8044B01
:100E10000F288CBF002001207047002381F8343058
:100E200001205DF8044B70473002001038B50446CD
:100E30000D462046FFF7C8FF0028FAD02368EDB220
:100E40001D706368054AC3EBC30302EBC30393F849
:100E50003420013283F8342038BD00BF3002001046
:100E60002DE9F04F04464648256883B085420F4679
:100E70009146019343D0D4F804A000255346414E37
:100E80004FEACA08C3EBC303CAEB080E002006EB07
:100E9000CE0E4FF0FF3B06EBC3030146024683F83C
:100EA0003500CEF81CB02046CEF804B0FFF78CFD1C
:100EB00017B903B0BDE8F08F33494846FFF7CEFBC2
:100EC000324983460198FFF7C9FBBB1E012B37D976
:100ED000012FEED1B9F1FF3FEBD0294B226807215A
:100EE0009B45117213D195B148462B7C264943F09E
:100EF00040032B7403B0BDE8F04FFFF77DBB2B7CA4
:100F0000D4F804A003F03F032B746368B7E7CAEB7F
:100F1000080806EBC8004946012504300022FFF707
:100F20004FFB20462A4663680021C3EBC30306EB50
:100F3000C30686F8355003B0BDE8F04FFFF744BD57
:100F4000019B01330AD00E4B98420DD0CAEB08002A
:100F500006EBC00001991C30FFF70AFB032FA8D154
:100F6000B9F1FF3FB9D1A4E7002DEFD02B7C019858
:100F700043F080032B740549FFF73EFBEEE700BF0B
:100F800000000140300200105C25000058260000DF
:100F90002DE9F04105460F46084659491646FFF728
:100FA0006BFB584904463046FFF766FB0146204676
:100FB000FFF742FB544B0446984228607FD06FD91C
:100FC000524B98424BD003F58043984206D1504A89
:100FD000D2F8C43043F00073C2F8C4300123237246
:100FE0002B684FF00008C3F8048028464FF41651D0
:100FF000FFF7F0FD2B6803221A7338464049FFF7CC
:10100000FBFA30463F49FFF7F7FA7A1C03D038461F
:101010004146FFF775FC731C03D030460021FFF7F3
:101020006FFC394B9C4247D021D9384B9C4263D04E
:1010300003F580439C424AD103236B60354CC3EBDC
:10104000C3034FF0FF3604EBC30428463246334651
:101050006660E6610021BDE8F041FFF701BF2C4A60
:10106000D2F8C43043F08073C2F8C430B6E7A3F5B9
:1010700080439C422BD1274E4FF0FF340021696002
:101080002246234628467460F461FFF7E9FE224BAE
:1010900001221A6028686968204B03C3BDE8F0810B
:1010A000A3F58043984299D1194AD2F8C43043F04D
:1010B0000803C2F8C43091E701236B60BEE7144A0D
:1010C000D2F8C43043F01003C2F8C43086E76E682B
:1010D000104BC6EBC6064FF0FF3703EBC6063A4689
:1010E0003B46284600217760F761FFF7B9FE0C4BBD
:1010F0009C42CCD0BDE8F08102236B609EE700BF2C
:10110000EC2500008025000000000140008009401F
:1011100000C00F4030020010280200101804001018
:1011200000C0004002480349034AFFF731BF00BF37
:101130001804001002C0092003C0092002280ADD9B
:10114000074AC31E52F82300002142F8231020B1A1
:1011500003685B681847002070474FF0FF30704706
:1011600010030010022812DC0E4B70B51B680C46F1
:1011700016460BB9FFF7D6FFA51936B114F8011BB7
:101180000948FFF753FEAC42F8D1304670BD074B1B
:10119000033853F8200010B103681B6818474FF05C
:1011A000FF307047280200101804001010030010D0
:1011B00002280DDC0C4B10B51B680C460BB9FFF771
:1011C000B1FF0A48FFF7E6FD01232070184610BD65
:1011D000074B033853F8200010B103689B68184789
:1011E0004FF0FF3318467047280200101804001013
:1011F00010030010022807DD064B033853F82000C7
:1012000020B10368DB681847012070474FF0FF30BA
:10121000704700BF10030010022807DD064B03389B
:1012200053F8200020B103681B691847002070475D
:101230004FF0FF30704700BF10030010022808B5C0
:1012400004D84FF400534B60002008BD00F0D8F9DB
:10125000092303604FF0FF3008BD00BF704700BF97
:10126000704700BF08B5FFF7FBFFFFF7F7FFBDE8CA
:101270000840FEF7F7BF00BF074A13681918EFF3DD
:101280000880814202D2184611607047034B0C223D
:101290001A604FF0FF307047CC000010200400109F
:1012A0000A4C08B523680546986800F0C3FA23681D
:1012B000D86800F0BFFAFFF759F920B905B9FEE781
:1012C000FFF714F9FBE7FFF7CDF8F7E7300100105F
:1012D0000649074A074B9A42BEBF51F8040B42F831
:1012E000040BF8E7044880470448004744270000FF
:1012F000C800001040010010E9060000E5030000EE
:10130000FEE7FEE7FEE7FEE7FEE7FEE7FEE7FEE7B5
:10131000FEE7FEE74FF0FF0C1CEAD0521EBF1CEAAE
:10132000D15392EA0C0F93EA0C0F6FD01A4480EA63
:10133000010C400218BF5FEA41211ED04FF000634C
:1013400043EA501043EA5111A0FB01310CF0004078
:10135000B1F5000F3EBF490041EAD3715B0040EA9E
:10136000010062F17F02FD2A1DD8B3F1004F40EB6E
:10137000C25008BF20F00100704790F0000F0CF041
:10138000004C08BF49024CEA502040EA51207F3A05
:10139000C2BFD2F1FF0340EAC250704740F40000E0
:1013A0004FF00003013A5DDC12F1190FDCBF00F0D1
:1013B00000407047C2F10002410021FA02F1C2F17F
:1013C000200200FA02FC5FEA310040F1000053EA1B
:1013D0004C0308BF20EADC70704792F0000F00F069
:1013E000004C02BF400010F4000F013AF9D040EA6F
:1013F0000C0093F0000F01F0004C02BF490011F403
:10140000000F013BF9D041EA0C018FE70CEAD15300
:1014100092EA0C0F18BF93EA0C0F0AD030F0004C80
:1014200018BF31F0004CD8D180EA010000F0004034
:10143000704790F0000F17BF90F0004F084691F0F2
:10144000000F91F0004F14D092EA0C0F01D142022C
:101450000FD193EA0C0F03D14B0218BF084608D1F5
:1014600080EA010000F0004040F0FE4040F400003F
:10147000704740F0FE4040F4400070474FF0FF0CD2
:101480001CEAD0521EBF1CEAD15392EA0C0F93EA19
:101490000C0F69D0A2EB030280EA010C49024FEA6B
:1014A000402037D04FF0805343EA111143EA101324
:1014B0000CF000408B4238BF5B0042F17D024FF4DC
:1014C000000C8B4224BF5B1A40EA0C00B3EB510FB7
:1014D00024BFA3EB510340EA5C00B3EB910F24BFA0
:1014E000A3EB910340EA9C00B3EBD10F24BFA3EB25
:1014F000D10340EADC001B0118BF5FEA1C1CE0D1ED
:10150000FD2A3FF650AF8B4240EBC25008BF20F09F
:10151000010070470CF0004C4CEA50207F32C2BFF3
:10152000D2F1FF0340EAC250704740F400004FF090
:101530000003013A37E792F0000F00F0004C02BFC1
:10154000400010F4000F013AF9D040EA0C0093F08B
:10155000000F01F0004C02BF490011F4000F013BE5
:10156000F9D041EA0C0195E70CEAD15392EA0C0F4D
:1015700008D142027FF47DAF93EA0C0F7FF470AF85
:10158000084676E793EA0C0F04D14B023FF44CAFC8
:1015900008466EE730F0004C18BF31F0004CCAD15D
:1015A00030F000427FF45CAF31F000437FF43CAF99
:1015B0005FE700BF4FEA4002B2F1FE4F0FD34FF09A
:1015C0009E03B3EB12620DD94FEA002343F00043B0
:1015D00010F0004F23FA02F018BF404270474FF05E
:1015E0000000704712F1610F01D1420205D110F0E5
:1015F000004008BF6FF0004070474FF00000704798
:10160000014B1868704700BF3001001008B5074B48
:10161000044613B10021AFF30080054B1868836ABC
:1016200003B198472046FFF73BFE00BF00000000D3
:10163000E026000070B505460C4609B9002070BDD3
:1016400018B183690BB900F047F9204B9C4201D1D6
:101650006C6808E01E4B9C4201D1AC6803E01D4B56
:101660009C4208BFEC68B4F90C30002BE6D0284649
:10167000214600F031F8236B064633B12846216A33
:1016800098470028B8BF4FF0FF36A3891B0603D543
:101690002846216900F032FA616B41B104F144033C
:1016A000994202D0284600F029FA00236363A16C16
:1016B00021B1284600F022FA0023A36400F076F955
:1016C0000023A38100F073F9304670BD7C26000032
:1016D0009C260000BC2600008A892DE9F0410546C1
:1016E00010070C4657D44B68002B02DC0B6C002B08
:1016F00018DDE66AB6B102F48052002392B22F6878
:101700002B600AB1626D10E0216A28460123B047C0
:10171000411C024609D12B683BB11D2B01D0162B71
:1017200046D12F600020BDE8F081A3895B0705D575
:101730006368D21A636B0BB1236CD21AE66A28462F
:10174000216A0023B047461CA28905D12B681BB132
:101750001D2B01D0162B19D1002363602369D104FE
:10176000236004D5421C01D12B6803B96065616B0D
:101770002F600029D6D004F14403994202D02846B4
:1017800000F0BCF900206063BDE8F08142F0400247
:10179000A281BDE8F0810E69002EC3D00B680E60F7
:1017A000C6EB030893070CBF4B6900238B6012E064
:1017B000A3894FF0FF3043F04003A381BDE8F081DF
:1017C000A76A2846216A32464346B8470028EFDD1B
:1017D0000644C0EB0808B8F1000FF1DCA2E70000F6
:1017E00038B50B6905460C46DBB118B183690BB9F6
:1017F00000F072F80C4B9C4201D16C6808E00B4B76
:101800009C4201D1AC6803E0094B9C4208BFEC68E4
:10181000B4F90C302BB128462146BDE83840FFF71B
:101820005BBF002038BD00BF7C2600009C26000066
:10183000BC260000014620B9044B0549186800F099
:10184000B7B8044B1868FFF7CBBF00BFE026000015
:10185000E117000030010010014900F0A9B800BFF5
:1018600035160000002310B5044603604360836012
:1018700081814366C28103614361836119465C30A3
:10188000082200F033F9054B24626362044BA36223
:10189000044BE362044B236310BD00BFC51E000070
:1018A000E71E00001F1F0000431F000070B54B1E05
:1018B00068255D430E4605F1740100F063F90446A6
:1018C00040B1002180E842000C30A06005F16802C0
:1018D00000F00CF9204670BD836910B5044633BB97
:1018E0008364C3640365124B124A1B688262984288
:1018F00004BF0123836100F01FF86060204600F000
:101900001BF8A060204600F017F80421E0600022D8
:101910006068FFF7A7FFA06809210122FFF7A2FF77
:10192000E06812210222FFF79DFF0123A36110BD91
:10193000E026000059180000F8B51B4B07461E684A
:10194000B36913B93046FFF7C7FF4836B468736808
:10195000013B04D4B4F90C5075B16834F8E733682E
:101960002BB938460421FFF7A1FF306008B1366873
:10197000ECE70C233B60F8BD4FF6FF73E3810123D6
:10198000A38165662560A560656025616561A561C7
:1019900004F15C002946082200F0A8F86563A563FD
:1019A000A564E5642046F8BDE02600007047704756
:1019B0002DE9F8438046894600F14804002694B199
:1019C000A5686768013F0CD4AB89012B07D9B5F92D
:1019D0000E30013303D040462946C84706436835D8
:1019E000F0E72468EBE73046BDE8F88370B50E4BAE
:1019F0000E4D0024ED1AAD101E46AC4204D056F830
:101A0000242090470134F8E700F05AFD084D094BB7
:101A10000024ED1AAD101E46AC4204D056F8242026
:101A200090470134F8E770BD340100103401001014
:101A30003C01001034010010F0B58B8991B09E0775
:101A400005460C4625D4B1F90E10002908DAA38901
:101A5000002713F0800F14BF40264FF480660DE07E
:101A600001AA00F05FFB0028F1DB029F4FF48066C3
:101A700007F47047B7F500514F424F4128463146B1
:101A800000F080F860B9A3899A051DD443F00203E1
:101A9000A38104F14703236023610123636113E001
:101AA0000A4BAB62A389206043F08003A3812061CD
:101AB00066614FB12846B4F90E1000F045FB18B12D
:101AC000A38943F00103A38111B0F0BD59180000B0
:101AD00010B5C9B202449042034605D01C780130CB
:101AE0008C42F8D1184610BD002010BD02440346B8
:101AF000934202D003F8011BFAE7704730B5002982
:101B00003CD051F8042C0B1F1D49002AB8BF9B186C
:101B10000A680C4612B95A600B6030BD93420DD270
:101B200019685818904203D15A58114442681960F4
:101B30005A60236030BD994203D80A465168002993
:101B4000F9D1146815199D420AD11B682344D01895
:101B50008842136012D10868034413604B680CE09C
:101B600002D90C23036030BD18681C188C4203D1C5
:101B70000C684968204418605960536030BD00BF4C
:101B80001404001070B5CD1C25F0030508350C2D8C
:101B900038BF0C25002D064603DA0C2333600020E5
:101BA00070BD8D42F9D3204B1C6818462146A1B167
:101BB0000B685B1B0ED40B2B03D90B60CC18CD50DC
:101BC0001FE08C4202D1626802601AE04B686360D9
:101BD0000C4616E00C464968E9E7144C23681BB92B
:101BE000304600F05FF920602946304600F05AF98F
:101BF000431C0146D1D0C41C24F0030484420AD102
:101C0000256004F10B00231D20F00700C31A09D042
:101C10005A42E25070BD3046611A00F043F901307B
:101C2000EED1BAE770BD00BF14040010100400101C
:101C3000936810B5013B002B936005DA9469A342C9
:101C400008DBCBB20A2B05D01368581C1060197042
:101C5000C8B210BDBDE8104000F080B9F8B5054627
:101C60000E461446D718BC4208D0284614F8011B6B
:101C70003246FFF7DDFF431CF5D100E00020F8BD40
:101C80002DE9F0439DB00D4617460393064618B163
:101C900083690BB9FFF720FE734B9D4201D1756834
:101CA00008E0724B9D4201D1B56803E0704B9D4244
:101CB00008BFF568AB8918070AD52B6943B1002323
:101CC000099320238DF8293030238DF82A3038E00D
:101CD0003046294600F0A8F90028F0D04FF0FF3038
:101CE000BEE0039A111D12680391002A70DB07926F
:101CF000013423782E2B7DD05E4F21783846032285
:101D0000FFF7E6FE30B1C71B4020B840049B01340A
:101D100003430493217858480622671C8DF8281045
:101D2000FFF7D6FE002800F08980544B002B7CD1B1
:101D3000039B073323F0070308330393099B4344B2
:101D400009933B461C4613F8012B1AB9B4EB07095B
:101D50000ED002E0252AF5D1F8E7304629463A466A
:101D60004B46FFF77BFF013075D0099B4B4409932D
:101D70002378002B6FD000234FF0FF32049307939A
:101D8000059206938DF853301A9304F101093C4FE4
:101D90004C46384621780522FFF79AFE09F10109E1
:101DA000049B28B1C71B0120B84003430493EEE70E
:101DB000D90644BF20228DF853201A0744BF2B2296
:101DC0008DF8532022782A2A8BD0079B214605E0E4
:101DD000524243F002030792049389E70C462278AB
:101DE0000131303A092A03D80A2000FB0323F5E722
:101DF00007937EE763782A2B09D1039B02341A1DCF
:101E00001B680392002BB8BF4FF0FF330BE0611C3F
:101E100000230C4622780131303A092A03D80A20DF
:101E200000FB0323F5E7059366E703AB0093304619
:101E300004A92A46134BAFF3008007E003AB0093DD
:101E4000304604A92A460F4B00F012FAB0F1FF3FCA
:101E500080467FF473AFAB895B063FF53FAF0998CF
:101E60001DB0BDE8F08300BF7C2600009C2600006A
:101E7000BC260000EA260000EE260000000000005C
:101E8000E42600005D1C000030B51346044A0546F8
:101E90000C46106829462246BDE83040FFF7F0BEE8
:101EA0003001001038B5064C002305460846236073
:101EB000FFF7E2F9431C02D1236803B12B6038BD60
:101EC0002004001010B50C46B1F90E1000F0E6FA2F
:101ED000002803DB636D0344636510BDA38923F40D
:101EE0008053A38110BD2DE9F0411D468B89074623
:101EF000DB050C46164605D5B1F90E10002202236B
:101F000000F032F9A389384623F48053A381B4F951
:101F10000E1032462B46BDE8F04100F073B810B504
:101F20000C46B1F90E1000F01FF9431CA38903D130
:101F300023F48053A38110BD43F48053A3816065D3
:101F400010BDB1F90E1000F0DDB8034613F8012BF7
:101F5000002AFBD1181A01387047000070B50E46F0
:101F60001446054618B183690BB9FFF7B5FC224B3F
:101F70009C4201D16C6808E0204B9C4201D1AC68C6
:101F800003E01F4B9C4208BFEC68A369A360A389D0
:101F90001A0709D523693BB123692068F6B2C01A34
:101FA000636998420FDB08E02846214600F03CF8C0
:101FB0000028F1D04FF0FF3070BD28462146FFF7D2
:101FC0000FFC0028F6D1A3680130013BA360236811
:101FD0005A1C22601E706369984204D0A389DB07F3
:101FE00007D50A2E05D128462146FFF7F9FB002820
:101FF000E0D1304670BD00BF7C2600009C2600006A
:10200000BC26000038B5074C054600202060084675
:1020100011461A46FFF7A6F8431C02D1236803B104
:102020002B6038BD20040010324B70B51D68064689
:102030000C4625B1AB6913B92846FFF74DFC2E4B72
:102040009C4201D16C6808E02C4B9C4201D1AC68E9
:1020500003E02B4B9C4208BFEC68A28993B219079E
:1020600020D4DD0605D4092342F040023360A2816A
:102070003BE0580712D5616B41B104F1440399422A
:1020800002D03046FFF73AFD00236363A38923F0B3
:102090002403A3810023636023692360A38943F0A1
:1020A0000803A38123694BB9A38903F42073B3F513
:1020B000007F03D030462146FFF7BEFCA38913F012
:1020C000010205D00022A26062695242A26103E0CF
:1020D000990758BF6269A26022694AB903F080007B
:1020E00080B230B143F04003A3814FF0FF3070BDA8
:1020F000002070BD300100107C2600009C260000EE
:10210000BC26000038B5064C00230546084623606F
:10211000FFF714F8431C02D1236803B12B6038BDCC
:102120002004001038B5074C002305460846114628
:102130002360FFF783F8431C02D1236803B12B60AF
:1021400038BD00BF2004001038B5064C00230546FA
:1021500008462360FEF75AF9431C02D1236803B1F5
:102160002B6038BD2004001038B5074C0546002010
:102170002060084611461A46FFF74EF8431C02D16C
:10218000236803B12B6038BD200400102DE9F8430B
:1021900015461F468A680B6906469A42A8BF134631
:1021A0002B6091F843200C46DDF820800AB1013302
:1021B0002B602368990602D52B6802332B602368B5
:1021C00013F006091DD094F843302268003318BF7D
:1021D000012392061FD5E118302081F843005A1CD4
:1021E00094F845102244023382F8431013E030463D
:1021F000394604F119020123C047013007D009F123
:102200000109E2682B68D31A9945F0DBDBE74FF050
:10221000FF30BDE8F8833046394604F14302C04739
:102220000130F4D023682A6803F00603E168042B28
:1022300008BFC2EB01052369A2680CBF25EAE5755A
:1022400000259A42C4BFC3EB0203ED184FF000090A
:10225000A9450ADA3046394604F11A020123C0477B
:102260000130D4D009F10109F2E70020BDE8F8837C
:102270002DE9FF470E7E80466E2E0C4691469A460B
:102280000C9D01F1430000F0A58011D8632E22D0EF
:1022900009D8002E00F0B280582E40F0C28081F89C
:1022A00045607C4A4FE0642E1ED0692E1CD0B8E0F9
:1022B000732E00F0A78009D86F2E2BD0702E40F01F
:1022C000B0800B6843F020030B6038E0752E21D0FE
:1022D000782E34D0A5E02B6801F142071A1D1B6847
:1022E0002A6081F84230A0E022682B6812F0800F4B
:1022F00003D01A1D2A601D6805E05706F9D51A1D7E
:102300002A60B3F90050002D39DA2D236D4284F88C
:10231000433034E022682B6812F0800F03D01A1D7E
:102320002A601D6804E05606F9D51A1D2A601D882A
:10233000237E584A6F2B14BF0A2308231BE07823FF
:10234000554A84F845302368296813F0800F01F15D
:1023500004062E6001D00D6802E05D06FBD50D88F5
:10236000D90744BF43F0200323601DB9236823F03D
:10237000200323601023002184F8431001E0454A24
:102380000A236668002EA66003DB216821F00401A1
:10239000216005B96EB104F14201B5FBF3F603FB10
:1023A0001655555D0F4601F801593546002EF4D1FA
:1023B00000E00746082B0AD12368DA0707D56268D0
:1023C00023699A4203DC302307F8013C013FC01B1C
:1023D00020612FE009682B6811F0800F626903D03B
:1023E000191D29601B6808E011F0400F03F104017A
:1023F00029601B6801D01A8000E01A600023236165
:10240000074617E02B681A1D2A601F683846FFF739
:102410009CFD63682061984288BF236123696360E3
:1024200005E004F1420784F84260012323610023A0
:1024300084F84330CDF800A04046214603AA4B461D
:10244000FFF7A4FE013002D14FF0FF301FE04046FD
:1024500049463A462369D0470130F5D023689B07A7
:1024600005D4E068039B9842B8BF18460FE00025EA
:10247000E268039BD31A9D42F3DA4046494604F1D1
:1024800019020123D0470130DED00135F0E704B056
:10249000BDE8F087F52600000627000038B5074C98
:1024A000054600202060084611461A46FEF780FEC9
:1024B000431C02D1236803B12B6038BD20040010F7
:1024C000F8B500BFF8BC08BC9E467047F8B500BF21
:1024D000F8BC08BC9E4670476D0800007D080000EF
:1024E000AD080000BD08000099080000D8240000D5
:1024F0001C020010636F756C64206E6F742070692D
:102500006E6F75740000000070696E6D6170206DF3
:1025100069732D6D617463680000000070696E6DF1
:102520006170206E6F7420666F756E6420666F72C6
:10253000207065726970686572616C0070696E6D9B
:102540006170206E6F7420666F756E6420666F72A6
:102550002066756E6374696F6E00000016C00920F6
:10256000000001400100000047C0092000000140B8
:1025700002000000FFFFFFFFFFFFFFFF0000000061
:1025800001C0092000C009400200000003C009206A
:1025900000C00040010000000BC00920008009407D
:1025A0000100000010C009200000014001000000EF
:1025B0001AC0092000C009400300000041C00920E2
:1025C000000001400200000049C0092000800940CD
:1025D000020000009DC0092000C009400300000067
:1025E000FFFFFFFFFFFFFFFF0000000000C009200A
:1025F00000C009400200000002C0092000C00040E5
:10260000010000000AC0092000800940010000000C
:102610000FC00920000001400100000019C009207E
:1026200000C009400300000040C009200000014034
:102630000200000048C0092000800940020000009C
:102640009CC0092000C0094003000000FFFFFFFFFD
:10265000FFFFFFFF0000000011C009200000014043
:102660000100000042C009200000014002000000FB
:10267000FFFFFFFFFFFFFFFF000000000000000062
:10268000000000000000000000000000000000004A
:10269000000000000000000000000000000000003A
:1026A000000000000000000000000000000000002A
:1026B000000000000000000000000000000000001A
:1026C000000000000000000000000000000000000A
:1026D00000000000000000000000000043000000B7
:1026E000D0000010232D302B2000686C4C00656654
:1026F0006745464700303132333435363738394153
:102700004243444546003031323334353637383968
:102710006162636465660000100000000000000054
:10272000017A5200027C0E011B0C0D00100000000B
:10273000180000000000000014000000000000006D
:042740000000000095
:1027440000D8B80528040010000000007C26000012
:102754009C260000BC2600000000000000000000D1
:102764000000000000000000DC2600000000000063
:102774000000000000000000000000000000000055
:102784000000000000000000000000000000000045
:102794000000000000000000000000000000000035
:1027A4000000000000000000D000001045010000FF
:0827B400ED0200001D01000010
:04000003000012D116
:00000001FF
